S00C00006D656E752E7372656363
S11300000C94C9000C94F3100C94D7100C94E600D3
S11300100C94E6000C94E6000C94E6000C94811316
S11300200C949D130C94E6000C94E6000C94E600EA
S11300300C94E6000C949D020C94E6000C94E600EB
S11300400C94E6000C94E6000C94E6000C94E60094
S11300500C94E6006E616E00696E660000407A10D2
S1130060F35A00A0724E18090010A5D4E80000E865
S11300707648170000E40B54020000CA9A3B0000C3
S113008000E1F505000080969800000040420F0052
S11300900000A08601000000102700000000E80313
S11300A0000000006400000000000A0000000000DE
S11300B00100000000002C76D888DC674F0823DF9D
S11300C0C1DFAE59E1B1B796E5E3E453C63AE65170
S11300D0997696E8E6C28426EB898C9B62ED407C97
S11300E06FFCEFBC9C9F40F2BAA56FA5F490055A33
S11300F02AF75C936B6CF9676DC11BFCE0E40D4758
S1130100FEF520E6B500D0ED902E0300943577057A
S11301100080841E080000204E0A000000C80C3332
S11301203333330F986E12831141EF8D2114893BC1
S1130130E65516CFFEE6DB18D1844B381BF77C1D41
S1130140901DA4BBE424203284725E228100C9F194
S113015024ECA1E53D27494E46494E4954594E41A8
S11301604E000020410000C84200401C4620BCBE96
S11301704CCA1B0E5AAEC59D74CDCCCC3D0AD723B8
S11301803C17B7D13877CC2B329595E6241FB14F65
S11301900A0011241FBECFE5D8E0DEBFCDBF15E0B5
S11301A0A0E6B0E0E0E1FCE302C005900D92A630C9
S11301B0B107D9F728E0A6E0B5E001C01D92AE3042
S11301C0B207E1F70E94F20F0C94061E0C94000093
S11301D08091A005813019F41092A00508950E9421
S11301E06608813049F40E940C09823439F481E0B4
S11301F08093060580E0089580E0089580E00895E6
S113020020E030E040EA50E40E9435140E940B15CF
S11302100E949D14262F63E0822F0E946C0A809115
S113022060000E94330908953E9A379A0895369AD9
S11302303699FECF24B135B1932F80E0820F911D02
S11302409C013370822F932F0895379A08950E944A
S1130250E2090E940F090E94140161E080E00E94FB
S1130260621380E490E00E94C1130E9425010E9461
S1130270450A85EA9EE00197F1F700C0000060E0BE
S113028080E00E946C0A81EE91E00E944C0A83ECAB
S113029099E00197F1F700C0000061E080E00E945E
S11302A06C0A83EC99E00197F1F700C0000086EF37
S11302B091E00E944C0A83EC99E00197F1F700C0A9
S11302C0000062E080E00E946C0A8AE092E00E94F2
S11302D04C0A7894089537980895CF92DF92EF925C
S11302E0FF920E94E8008823E1F3809106058823A9
S11302F021F00E946B0181E015C10E9417019093C7
S1130300080580930705BC0180E090E00E94CE14AC
S11303102AE939E94CEC53E40E943514C62ED72E51
S1130320E82EF92E20E030E0A9010E943114811159
S113033009C010920D0510920E0510920F0510922F
S1130340100516C02C2D3D2D4E2D5F2D60910D05F1
S113035070910E0580910F05909110050E94CD13A8
S113036060930D0570930E0580930F05909310050F
S11303702C2D3D2D4E2D5F2D6091090570910A05A0
S113038080910B0590910C050E943114882309F487
S11303904FC0FF92EF92DF92CF928DE192E09F9354
S11303A08F931F9288E08F9384EA95E09F938F93B5
S11303B00E94891B2DB73EB7265F3F4F0FB6F894B6
S11303C03EBF0FBE2DBF892B79F161E08AE00E9408
S11303D06C0A83EC99E00197F1F700C000008CEB04
S11303E093E00E944C0A83EC99E00197F1F700C076
S11303F0000061E08AE00E946C0A83EC99E00197B6
S1130400F1F700C0000084EA95E00E944C0A8C2DAC
S11304109D2DAE2DBF2D8093090590930A05A093C1
S11304200B05B0930C0504C085E292E00E944C0ACF
S113043060910D0570910E0580910F059091100546
S11304400E94A2142AE030E044EA55E00E94381BDE
S1130450845A954009F03FC0809110058F93809194
S11304600F058F9380910E058F9380910D058F93C7
S113047083E392E09F938F931F9288E08F9384EAA3
S113048095E09F938F930E94891B60E08AE00E940D
S11304906C0A8DEB93E00E944C0A83EC99E001977F
S11304A0F1F700C0000060E08AE00E946C0A84EA70
S11304B095E00E944C0A83EC99E00197F1F700C0A3
S11304C000002DB73EB7265F3F4F0FB6F8943EBFEE
S11304D00FBE2DBF04C08BE392E00E944C0AC09073
S11304E00D05D0900E05E0900F05F090100520E06A
S11304F030E048EC52E4C701B6010E9431141816EA
S113050034F0C701B6010E94000180E00BC063E033
S113051080E00E946C0A81E592E00E944C0A0E94ED
S11305206B0181E0FF90EF90DF90CF9008950E94DF
S11305306D018823E1F381E008951F920F920FB6B5
S11305400F9211242F938F939F939091140590935E
S113055015058CB18093140520911105222329F0EF
S113056021E020931305809321068D3229F49A32D9
S113057019F481E0809311059F918F912F910F9031
S11305800FBE0F901F901895BF92CF92DF92EF92FB
S1130590FF920F931F93CF93DF93809113058823CA
S11305A0C1F180911205811134C01092130580911C
S11305B016058093170590912106909316058D32A8
S11305C0B9F49A32A9F481E080931205E0911805F8
S11305D0F0911905EE54FA4F1082109219051092F9
S11305E0180510921705109216051092110502C0F5
S11305F0109212058091180590911905FC01EE5492
S1130600FA4F209116052083019690931905809343
S11306101805809113058111A7C0809112058823C4
S113062009F4A4C01092B1051092B005109290067E
S113063010928F0610921D0610921C062EE136E0D1
S1130640E901188219821A8286E196E0FC0110827F
S113065011821282A9E1B6E01D921D921C9212979A
S11306600F2EF8E8CF2EF6E0DF2EF02D45E0E60160
S113067019924A95E9F70F2EF2E2EF2EF6E0FF2EDB
S1130680F02D0F2EF4E6BF2EF02DF7014B2D119215
S11306904A95E9F701E916E0E801188219821A82FD
S11306A01B82C2EBD5E048815981F9015183408313
S11306B02091B4053091B505FC01318320838091EC
S11306C0B6059091B7058D939C934091B8055091D0
S11306D0B9056091BA057091BB05F6014083518359
S11306E062837383C6010E94F3196C019093870699
S11306F0809386068CEB95E04C2D5D2D682F792F29
S11307008E2D9F2D0E94F41AF601E454FA4F808135
S11307109181A281F80180839183A2838EE196E086
S11307200E94F3199093B1058093B00586E196E099
S11307300E94F3199093900680938F0689E196E0C6
S11307400E94F31990931D0680931C0610921205C3
S113075010921305FE011192BA94E9F7109219054B
S11307601092180581E003C080E001C080E0DF91B1
S1130770CF911F910F91FF90EF90DF90CF90BF909A
S113078008950E94C4028823E1F381E008956F92E2
S11307907F928F929F92AF92BF92CF92DF92EF920D
S11307A0FF920F931F93CF93DF93CDB7DEB72997B3
S11307B00FB6F894DEBF0FBECDBF4C015B016A01DA
S11307C0622E732E84E6EAE1F5E0DF011D928A953C
S11307D0E9F7E22FF32FDF010D900020E9F71197DD
S11307E07D01EE1AFF0A8701065F1F4FFE01319655
S11307F085E0DF011D928A95E9F7BAE0EB16F10472
S11308003CF480E389838A838B838E2D805D8C8383
S1130810C7010A978A35910578F480E389838A832E
S11308204AE050E0BE016A5F7F4FC7010E940F1B80
S11308308E818B838F818C83C70184569109833881
S1130840934080F480E389834AE050E0BE016A5F0C
S11308507F4FC7010E940F1B8E818A838F818B83F8
S113086088858C83D4018D919C9190931B058093F2
S11308701A05F5018081918190931D0580931C05D3
S1130880D6018D919C9190931F0580931E054981FB
S11308905A816B817C81409320055093210560939C
S11308A022057093230524E235E04E2D5F2D662D3D
S11308B0772D822F932F0E94F41A1016110664F4D8
S11308C0EAE1F5E0C7018C5D9A4F20E031912327DE
S11308D0E817F907D9F701C020E0F801E65EFA4FFE
S11308E080E38083F701E65EFA4F838724878DE2F5
S11308F085878AE28687178681E029960FB6F89461
S1130900DEBF0FBECDBFDF91CF911F910F91FF903E
S1130910EF90DF90CF90BF90AF909F908F907F909B
S11309206F90089508950E94450A80E18A95F1F731
S113093000C081E080938405089590E0DC01AA0F53
S1130940BB1FA80FB91F80917E059BE1899FA00D55
S1130950B11D1124AE59BF4F1196ED91FC91129720
S11309608C9180937E0509950895809361000E947F
S11309709D04089563E080E00E946C0A81E0809306
S1130980920543E050E066E672E081E090E00E9468
S11309902C118823B1F310928E0581E08093850594
S11309A08AE692E00E944C0A81E00E94B504089510
S11309B00E94C1038823E1F380911C0690911D06D7
S11309C081309105A9F463E080E00E946C0A8FE60F
S11309D092E00E944C0A2FEF88E09DE32150804072
S11309E09040E1F700C0000086E00E94B50408953D
S11309F082309105A9F463E080E00E946C0A89E7E3
S1130A0092E00E944C0A2FEF88E09DE32150804041
S1130A109040E1F700C0000087E00E94B50408950B
S1130A208330910529F50E94450A83ED90E30197EF
S1130A30F1F700C0000060E080E00E946C0A87E8E3
S1130A4092E00E944C0A62E080E00E946C0A89E90C
S1130A5092E00E944C0A9FE724E88EE191502040E6
S1130A608040E1F700C0000086E00E94B5040895CC
S1130A708B30910521F482E00E94B50408950C970F
S1130A80A9F463E080E00E946C0A8CEA92E00E9480
S1130A904C0A9FE724E88EE1915020408040E1F722
S1130AA000C0000084E00E94B504089583E00E9421
S1130AB0B504089580918505882399F02EEF36E0DA
S1130AC049EB52E06CEB72E08FEB92E00E94C703BB
S1130AD08AE195E00E94B2131092850581E00E949C
S1130AE0B504809186058823D9F01092860562E0CA
S1130AF080E00E946C0A82EC92E00E944C0A2DED88
S1130B0036E047ED52E06CEB72E08FEB92E00E942E
S1130B10C7038AE195E00E94B21385E00E94B50400
S1130B200895CF93DF930E94450A83ED90E30197E4
S1130B30F1F700C0000060E080E00E946C0A8AEDDA
S1130B4092E00E944C0A80917F05882341F063E083
S1130B5080E00E946C0A89E792E00E944C0A85E0DA
S1130B60EDEDF6E0DF011D928A95E9F7C0E0D0E0F3
S1130B700E946608813001F5C430D10501F161E0BD
S1130B808C2F0E946C0A0E940C09FE01E352F94F5B
S1130B9080830E943309BFE32DE083E0B1502040FD
S1130BA08040E1F700C0000061E08C2F0E946C0AD5
S1130BB08AE20E9433092196C430D105C9F681E046
S1130BC08093860580917E05863021F483E00E941F
S1130BD0B50403C081E00E94B504DF91CF9108956C
S1130BE00E94450A83ED90E30197F1F700C00000ED
S1130BF085EE92E00E944C0A61E080E00E946C0A5B
S1130C0088EF92E00E944C0A82E00E94B5040895A5
S1130C102BE033E048E153E06CEB72E08FEB92E0C1
S1130C200E94C7038AE195E00E94B21387E00E9404
S1130C30B50408952BE133E04CE253E06CEB72E031
S1130C408FEB92E00E94C7038AE195E00E94B21301
S1130C508091950690919606019741F4109296061C
S1130C601092950686E00E94B504089581E00E94E2
S1130C70B504089580E490E00E94C1130E94E20943
S1130C8078940E940F0980918405811108C0809195
S1130C9061000E94B504809184058823C1F381E03A
S1130CA008950E94450A8BE49DE10197F1F700C085
S1130CB0000085EE92E00E944C0A61E080E00E9410
S1130CC06C0A8FE293E00E944C0A62E080E00E948A
S1130CD06C0A88EF92E00E944C0A81E00E94B504FD
S1130CE008958F929F92AF92BF92CF92DF92EF922C
S1130CF0FF920F931F93CF93DF9381E0809394052A
S1130D0010928E0545E050E060E473E081E090E0ED
S1130D100E942C118823B1F380E797E00E94EF1919
S1130D20C62FD72F182F892E8BEF97E00E94EF192B
S1130D30C62EB72EA82E992E86E897E00E94EF19AA
S1130D40062FF72EE82ED92E8F921F93DF93CF9381
S1130D50C6E4D3E0DF93CF931F9218E01F932AEAEF
S1130D6036E03F932F930E94891B9F92AF92BF92CC
S1130D70CF92DF93CF931F921F932CEC36E03F93D7
S1130D802F930E94891BDF92EF92FF920F93DF93C0
S1130D90CF931F921F938BEB96E09F938F930E94A8
S1130DA0891B82E00E94B5048DB79EB74E960FB69C
S1130DB0F8949EBF0FBE8DBFDF91CF911F910F910D
S1130DC0FF90EF90DF90CF90BF90AF909F908F9067
S1130DD008950E94450A87EA91E60197F1F700C059
S1130DE0000061E080E00E946C0A8EE493E00E94BF
S1130DF04C0A62E080E00E946C0A82E693E00E9462
S1130E004C0A0E9466088130E1F785E00E94B5042F
S1130E100895909181078091DD06981316C09091F2
S1130E2082078091DE06981310C090918307809109
S1130E30DF0698130AC0909184078091E006981306
S1130E4004C087E00E94B504089563E080E00E9436
S1130E506C0A81E080937F0582E00E94B5040895C6
S1130E60CF93DF93C82FD62F0E9466088130E1F715
S1130E700E940C098C1308C081E090E090938105D6
S1130E808093800581E00BC08D1308C082E090E060
S1130E90909381058093800581E001C080E0DF911B
S1130EA0CF910895CF93DF9300D01F92CDB7DEB7D3
S1130EB020E733E04DE753E06CEB72E08FEB92E018
S1130EC00E94C7038AE195E00E94B2130E94C10305
S1130ED08823E1F380911C0690911D0687319105CA
S1130EE061F462E080E00E946C0A80E893E00E9472
S1130EF04C0A83E00E94B50476C0489709F06AC0A2
S1130F000E94450A83ED90E30197F1F700C00000C9
S1130F1060E080E00E946C0A8AE893E00E944C0A38
S1130F2061E080E00E946C0A91E29A95F1F700007A
S1130F3088E993E00E944C0A62E080E00E946C0A17
S1130F404AE050E0BE016F5F7F4F80911F01909196
S1130F5020010E940F1BCE0101960E944C0A8DEACB
S1130F6093E00E944C0A63E080E00E946C0A809146
S1130F7082050E94330985EB93E00E944C0A80911C
S1130F8021010E94330986E794E00E944C0A62E43E
S1130F9081E40E9430078823D1F381E080938305A4
S1130FA02FE78DE89BE5215080409040E1F700C099
S1130FB0000080918005909181058130910521F494
S1130FC081E00E94B5040FC0029769F484E00E9496
S1130FD0B50409C082E00E94B50481E090E09093DA
S1130FE09606809395060F900F900F90DF91CF9106
S1130FF008958230910551F01CF4019791F40FC0CB
S11310008330910531F0049761F406C0AE9AAF982D
S11310100895AE98AF9A0895AE9AAF9A0895AE988F
S1131020AF98089546B396B386B393FB992790F986
S1131030447050E09A0135952795292B8270880FCA
S1131040822B08956330D9F018F4623051F505C04D
S1131050663061F0673029F51BC0FC01EE0FFF1FFD
S1131060EE0FFF1FE25EFE4F80810895FC01EE0F3C
S1131070FF1FEE0FFF1FE25EFE4F81810895FC010A
S1131080EE0FFF1FEE0FFF1FE25EFE4F82810895F9
S1131090FC01EE0FFF1FEE0FFF1FE25EFE4F838188
S11310A0089580E0089590E0181619066CF420E085
S11310B030E0E9EFF0E03197F1F700C000002F5F76
S11310C03F4F28173907ACF381E008958091E30678
S11310D0833009F458C028F48130D1F108F040C0BD
S11310E009C0853009F479C008F461C0863009F07C
S11310F08EC084C08091E7069091E806019721F4A0
S11311001092E8061092E7068091E5069091E606B3
S1131110059741F481E090E09093E6068093E5061C
S11311200E94F9070E94120881FF04C081E08093A5
S1131130E3066FC01092E3068091E5069091E606FF
S113114001969093E6068093E5060E94F90761C034
S11311500E9412088093E20682E08093E30659C05D
S11311608AE00E945308882351F00E94120890914B
S1131170E206891304C083E08093E3064AC082E058
S11311808093E30646C084E08093E3066091E20620
S11311908091E5069091E6060E9422088093E40679
S11311A081E090E09093E8068093E70632C0809156
S11311B0E7069091E806019721F41092E806109250
S11311C0E7060E94120881FF04C085E08093E306CD
S11311D020C086E08093E3061CC083E20E9453088B
S11311E0882341F00E941208811104C086E0809394
S11311F0E3060FC085E08093E3060BC01092E3067C
S113120081E090E09093E6068093E50602C0109298
S1131210E3068091E70608958091E4060895A69A6E
S1131220A79A1092E3060895DB9A00009BB3807F8F
S11312309F70892B8BBB88EC8A95F1F7DB9888EC3F
S11312408A95F1F70895CF93C82FDB9A0000000028
S11312500E9414090000DB9A8C2F8295807F0E94E3
S11312601409CF9108959AB39C6F9ABBDA9A00003F
S113127000000E94230908959AB39C6F9ABBDA98E0
S1131280000000000E942309089580E40E943C09A4
S11312908FE097E20197F1F700C0000080E00E9420
S11312A0330987E893E10197F1F700C0000081E07A
S11312B00E94330987E893E10197F1F700C0000029
S11312C083E00E94330987E893E10197F1F700C0B6
S11312D0000086E10E94330987E893E10197F1F762
S11312E000C000008CE10E94330987E893E1019774
S11312F0F1F700C0000088E00E94330987E893E119
S11313000197F1F700C0000080E00E94330987E8EC
S113131093E10197F1F700C0000080E00E943309D7
S11313208FE097E20197F1F700C0000088E00E9487
S1131330330987E893E10197F1F700C000008CE0DE
S11313400E94330987E893E10197F1F700C0000098
S11313508AE00E94330987E893E10197F1F700C01E
S1131360000089E00E94330987E893E10197F1F7CF
S113137000C000008AE00E94330987E893E10197E6
S1131380F1F700C000008CE00E94330987E893E184
S11313900197F1F700C0000088E00E94330987E854
S11313A093E10197F1F700C0000080E00E94330947
S11313B08FE097E20197F1F700C0000080E80E94F7
S11313C0330908958AB38C6F8ABB8BB3837F8BBB3D
S11313D080E30E9414098FE59AEE0197F1F700C0AB
S11313E0000080E30E9414098FE59AEE0197F1F75B
S11313F000C0000080E30E9414098FE59AEE019773
S1131400F1F700C0000080E20E9414098FE59AEE13
S11314100197F1F700C0000088E20E943C0987E8C8
S113142093E10197F1F700C0000088E00E943C09B5
S113143087E893E10197F1F700C0000081E00E9482
S11314403C0987E893E10197F1F700C0000086E0CA
S11314500E943C0987E893E10197F1F700C000007E
S11314608CE00E943C0987E893E10197F1F700C002
S113147000000E94450987E893E10197F1F700C055
S1131480000082E00E943C09089581E00E943C092A
S113149083E00E943C0908950F931F93CF93DF9339
S11314A0EC018881882399F0219610E000E08D30CA
S11314B021F08A3011F00E9433091F5F143120F0AB
S11314C084ED0E943C09102F89918111F0CFDF91A6
S11314D0CF911F910F910895613051F028F062303F
S11314E059F0633081F40CC080580E943C0908957F
S11314F080540E943C0908958C560E943C0908952A
S11315008C520E943C0908950E94450A87EA91E69C
S11315100197F1F700C0000080918305882309F446
S11315207AC080918805882309F475C060E080E062
S11315300E946C0A8DEC93E00E944C0A62E080E009
S11315400E946C0A81EE93E00E944C0A63E080E002
S11315500E946C0A86EF93E00E944C0A10928E055A
S113156081E08093930580E1EBEFF7E0DF01282F22
S11315701D922A95E9F7E0E7F7E0DF01282F1D9295
S11315802A95E9F7E6E8F7E0DF011D928A95E9F785
S113159088E0E9EEF6E0ABEFB7E001900D928A95B2
S11315A0E1F788E0E4EFF6E0A6E8B7E001900D92F9
S11315B08A95E1F788E0E4EFF6E0A0E7B7E0019070
S11315C00D928A95E1F745E050E065E074E085E02E
S11315D090E00E942C118823B1F31092930581E0CE
S11315E0809389050E94450A8BE094E00E944C0A8E
S11315F0BFE32DE083E0B15020408040E1F700C01C
S1131600000028E088E190E00FB6F894A89581BD29
S11316100FBE21BDFFCF2BE033E048E153E06CEB7C
S113162072E08FEB92E00E94C7038AE195E00E948A
S1131630B2131092880581E080938E0181E090E0DE
S113164090939201809391019093940180939301DC
S11316509FE3ADE0B3E09150A040B040E1F700C09B
S113166000002FE38DE093E0215080409040E1F7AB
S113167000C0000028E088E190E00FB6F894A89537
S113168081BD0FBE21BDFFCF90E0DC01AA0FBB1FBF
S11316908A0F9B1F2091320130E0220F331FD901A2
S11316A0AA0FBB1FAA0FBB1FAA0FBB1F2A0F3B1FEA
S11316B0DC01A20FB31FAD5CBE4F1196ED91FC91FE
S11316C012978C918093320109950895CF93C82F76
S11316D00E9466088130E1F70E940C0991E08C13A6
S11316E090E0892FCF910895809387050E94440B41
S11316F00895CF93DF9380918305882391F080919F
S11317001F01909120019093FD068093FC064AE00E
S113171050E061EF76E00E940F1B82E00E94740BA0
S113172035C026E134E047E254E06CEB72E08FEB25
S113173092E00E94C7038AE195E00E94B2130E94DE
S1131740C1038823E1F380911C0690911D06C39781
S1131750E9F482E296E00E94F3199093FD068093E7
S1131760FC06C1EFD6E0409186065091870660E002
S113177070E08C2F9D2F0E94FD1A8091220690917B
S113178023069983888382E00E94740BDF91CF91B2
S11317900895CF9380918E01882381F010928E0159
S11317A061E080E00E946C0A80918D010E943309FF
S11317B081E090E090939401809393018091880557
S11317C0882341F061E080E00E946C0A80918A05E0
S11317D00E94330980918B05882351F010928B0568
S11317E062E080E00E946C0A80918D010E943309BE
S11317F0C09193010E9466088130E1F70E940C09B0
S1131800823409F459C020F4813409F05AC039C033
S11318108334E9F0863409F054C0809193019091A7
S1131820940120919101309192018217930749F418
S113183080918F01909190019093940180939301F2
S113184046C00197909394018093930140C0809186
S113185093019091940120918F013091900182170E
S1131860930749F48091910190919201909394018E
S1131870809393012CC001969093940180939301DB
S113188026C080919301909194018130910529F4AF
S113189083E00E94740B81E02BC08230910529F40F
S11318A084E00E94740B81E023C0039781F485E0F7
S11318B00E94740B81E01CC080E00E94740B81E0E4
S11318C017C081E090E090939401809393016C2F72
S11318D080E00E946C0A80E20E94330960919301C7
S11318E080E00E946C0A80918D010E94330980E09F
S11318F0CF9108950E94450A87EA91E60197F1F78E
S113190000C0000060E085E00E946C0A8AE294E076
S11319100E944C0A60E08BE00E946C0A81EF96E022
S11319200E944C0A60E08DE00E946C0A8DEA93E00C
S11319300E944C0A61E081E00E946C0A81EF92E00F
S11319400E944C0A62E081E00E946C0A81E394E008
S11319500E944C0A63E081E00E946C0A8091830536
S1131960882329F08DE394E00E944C0A04C08AE5A0
S113197094E00E944C0A0E94C90B8823E1F3089565
S11319800F931F93CF93DF93CDB7DEB72A970FB68C
S1131990F894DEBF0FBECDBF0E94450A87EA91E6E8
S11319A00197F1F700C0000080918305882361F15D
S11319B08E010F5F1F4F8AE0F80111928A95E9F7B3
S11319C0EAEAF6E0DF010D900020E9F71197AE1B7B
S11319D0BF0B4A2F5B2F6E2F7F2FC8010E94F41A72
S11319E060E080E00E946C0A83E494E00E944C0A68
S11319F061E080E00E946C0AC8010E944C0A81E503
S1131A0094E00E944C0A45C026E534E042E654E0E6
S1131A106CEB72E08FEB92E00E94C7038AE195E0E1
S1131A200E94B2130E94C1038823E1F380911C0633
S1131A3090911D0683349105C1F40091860610919E
S1131A408706C8010196482F592F60E070E0CE0147
S1131A5001960E94FD1A82E296E0402F512F682FD2
S1131A60792FCE0101960E94F41A60E080E00E9472
S1131A706C0A85E694E00E944C0A61E080E00E94D2
S1131A806C0ACE0101960E944C0A81E594E00E9402
S1131A904C0A63E08EE00E946C0A80918D010E94E2
S1131AA0330985E794E00E944C0A82E40E94660BA5
S1131AB08823D9F30E94450A87EA91E60197F1F752
S1131AC000C000008091880581110AC081E090E087
S1131AD0909394018093930181E080938E0109C0D7
S1131AE082E090E0909394018093930181E080934D
S1131AF08B0581E00E94740B2A960FB6F894DEBF22
S1131B000FBECDBFDF91CF911F910F910895EF923A
S1131B10FF920F931F93CF93DF93CDB7DEB76497F4
S1131B200FB6F894DEBF0FBECDBF0E94450A87EA08
S1131B3091E60197F1F700C00000809183058823A6
S1131B4081F12AE0CE010196FC01322F11923A95DF
S1131B50E9F78E01055F1F4FF80111922A95E9F705
S1131B60ECECF6E0DF010D900020E9F71197AE1BD5
S1131B70BF0B4A2F5B2F6E2F7F2F0E94F41AEBEBC3
S1131B80F6E0DF010D900020E9F71197AE1BBF0BC3
S1131B904A2F5B2F6E2F7F2F802F912F0E94F41AD4
S1131BA064C02BE734E042E954E06CEB72E08FEB65
S1131BB092E00E94C7038AE195E00E94B2130E945A
S1131BC0C1038823E1F380911C0690911D06CE97F2
S1131BD0C1F40091860610918706C8010196482F2A
S1131BE0592F60E070E0CE0101960E94FD1A82E256
S1131BF096E0402F512F682F792FCE0101960E9435
S1131C00F41A25E934E043EA54E06CEB72E08FEB1C
S1131C1092E00E94C7038AE195E00E94B2130E94F9
S1131C20C1038823E1F380911C0690911D06803442
S1131C309105D9F4E0908606F0908706C7010196D5
S1131C408E01055F1F4F482F592F60E070E0802FF1
S1131C50912F0E94FD1A82E296E04E2D5F2D682F8F
S1131C60792F802F912F0E94F41A60E080E00E9467
S1131C706C0A86EA94E00E944C0A61E080E00E94CB
S1131C806C0A8BEB94E00E944C0ACE0101960E94F0
S1131C904C0A85EC94E00E944C0A62E080E00E94C9
S1131CA06C0A8AEC94E00E944C0ACE010B960E94C6
S1131CB04C0A84ED94E00E944C0A63E08EE00E949A
S1131CC06C0A80918D010E94330985E794E00E949B
S1131CD04C0A82E40E94660B8823D9F30E94450AC9
S1131CE087EA91E60197F1F700C00000809188052A
S1131CF081110AC081E080938E0181E090E090938D
S1131D0094018093930109C082E090E09093940140
S1131D108093930181E080938B0581E00E94740B92
S1131D2064960FB6F894DEBF0FBECDBFDF91CF919E
S1131D301F910F91FF90EF9008958F929F92AF9211
S1131D40BF92CF92DF92EF92FF920F931F93CF93A4
S1131D50DF9388E0E4EFF6E0DF01282F1D922A9557
S1131D60E9F7E9EEF6E0DF011D928A95E9F70E94B2
S1131D7027010E9497028823E1F36091FC06709189
S1131D80FD06882777FD8095982F0E94D014209116
S1131D900D0530910E0540910F05509110050E94DC
S1131DA0D315162F072FD82EC92E9F938F937F9369
S1131DB06F93C6E4D3E0DF93CF930F2EF4EFEF2EAF
S1131DC0F6E0FF2EF02DFF92EF920E94B91B982EA1
S1131DD0892E809110058F9380910F058F938091A8
S1131DE00E058F9380910D058F93DF93CF93C9EEEA
S1131DF0D6E0DF93CF930E94B91BB82EA92ECF92C1
S1131E00DF920F931F9309ED14E01F930F938F92AA
S1131E109F92FF92EF920E94891B809110058F93ED
S1131E2080910F058F9380910E058F9380910D05FE
S1131E308F931F930F93AF92BF92DF93CF930E9420
S1131E40891BADB7BEB794960FB6F894BEBF0FBE4C
S1131E50ADBF80918305811123C09E014EED54E0F6
S1131E606CEB72E08FEB92E00E94C7038AE195E08D
S1131E700E94B213BFE322E48FE0B15020408040BF
S1131E80E1F700C00000970141EE54E06CEB72E012
S1131E908FEB92E00E94C7038AE195E00E94B2139F
S1131EA021E02093880582E090E090939201809352
S1131EB09101909394018093930120938B050E9448
S1131EC0450AA3EDB0E31197F1F700C0000060E00C
S1131ED080E00E946C0A84EE94E00E944C0A809197
S1131EE08A050E94330961E080E00E946C0A8BEB52
S1131EF094E00E944C0A89EE96E00E944C0A85EC1C
S1131F0094E00E944C0A62E080E00E946C0A8AEC31
S1131F1094E00E944C0A84EF96E00E944C0A84EDFF
S1131F2094E00E944C0A63E080E00E946C0A809175
S1131F308D010E94330988EF94E00E944C0A81E4E9
S1131F400E94660B8823D9F30E94450A83ED90E32F
S1131F500197F1F700C0000081E00E94740BDF914B
S1131F60CF911F910F91FF90EF90DF90CF90BF9092
S1131F70AF909F908F90089580918905882351F0A8
S1131F8028E088E190E00FB6F894A89581BD0FBED3
S1131F9021BDFFCF0E94450A87EA91E60197F1F738
S1131FA000C0000061E080E00E946C0A8EE493E0CF
S1131FB00E944C0A62E080E00E946C0A82E693E090
S1131FC00E944C0A0E9466088130E1F782E00E9478
S1131FD0740B08950E943A068823E1F381E00E947D
S1131FE0740B089580E490E00E94C1130E94E209FA
S1131FF078940E940F0981E00E94740B80E090E0C5
S1132000089508950F931F93CF93DF9380919B05B9
S1132010882319F085E50E945E1380919A05882330
S113202049F082E50E945E1381E00E945E1381E024
S11320300E945E1380919905882349F082E50E94ED
S11320405E1382E00E945E1381E00E945E13809121
S11320509505882349F082E50E945E1384E00E947E
S11320605E1381E00E945E1380919605882349F0F7
S113207082E50E945E1385E00E945E1381E00E9467
S11320805E1380919805882309F456C080919501C8
S1132090909196018130910591F481E1ECE0F7E0B3
S11320A0DF011D928A95E9F780E1E0E7F7E0ACE013
S11320B0B7E001900D928A95E1F7C2E02AC0823020
S11320C0910591F481E1ECE0F7E0DF011D928A953E
S11320D0E9F780E1EBEFF7E0ACE0B7E001900D92B7
S11320E08A95E1F7C5E015C0039791F481E1ECE02E
S11320F0F7E0DF011D928A95E9F780E1E6E8F7E071
S1132100ACE0B7E001900D928A95E1F7C4E001C01C
S1132110C2E087E50E945E138C2F0E945E1381E06B
S11321200E945E13CCE0D7E00CE117E089910E9495
S11321305E13C017D107D1F780919705882329F141
S113214087E50E945E1382E00E945E1381E00E9494
S11321505E131092980110929701809197019091CB
S11321609801069794F480E30E945E13809197018E
S11321709091980101969093980180939701809192
S1132180970190919801069774F3DF91CF911F9175
S11321900F910895B89A80E490E00E94C1138BB720
S11321A0806C8BBF85B7856085BF789408951F9236
S11321B00F920FB60F9211248F9380919E05811177
S11321C007C082E080938D0581E080939E0505C061
S11321D083E080938D0510929E058F910F900FBE22
S11321E00F901F9018951F920F920FB60F92112403
S11321F08F9380919F05811106C081E080938D05A6
S113220080939F0504C010929F0510928D058F91B5
S11322100F900FBE0F901F90189590E0DC01AA0F4D
S1132220BB1FA80FB91F20918C0530E0C901880F8E
S1132230991F280F391F220F331F220F331FA20F9C
S1132240B31FA756BE4F1196ED91FC9112978C9136
S113225080938C0509950895CF92DF92EF92FF92B7
S11322600F931F93CF93DF937C01C62ED72E8A0141
S11322705093910540939005CA010196CCE0D7E0B4
S1132280482F592F60E070E08C2F9D2F0E94FD1A7B
S1132290402F512F6C2D7D2D8C2F9D2F0E94F41AD1
S11322A085E0E1E8F7E0DF011D928A95E9F784E62D
S11322B0E7E9F7E0DF011D928A95E9F7B4E0EB1650
S11322C0F10401F14CF4A2E0EA16F10499F0B4F43B
S11322D0EA94EF2831F50AC0A6E0EA16F104D1F039
S11322E0ACF087E0E816F104E1F418C081E08093D3
S11322F09B0517C081E08093990513C081E080930A
S11323009A050FC081E0809397050BC081E080930C
S1132310980507C081E08093960503C081E080930F
S113232095050E94CA100E94591380918E0581114F
S113233008C080918D050E940D1180918E0588231F
S1132340C1F381E0DF91CF911F910F91FF90EF9046
S1132350DF90CF9008958FB9779BFECF2FB18091F6
S11323609C0590919D05FC01E956F84F2083019648
S113237090939D0580939C050895CF93DF9300D09F
S1132380CDB7DEB780919B05882309F43FC087E869
S113239093E10197F1F700C0000085EF0E945E13FE
S11323A08FB11F928F9380E095E09F938F93CE011E
S11323B001969F938F930E94B91BE0919701F0912E
S11323C09801E250F94F8A8180838091970190911E
S11323D0980101979093980180939701E091970158
S11323E0F0919801E250F94F89818083809197019F
S11323F090919801019790939801809397010F9081
S11324000F900F900F900F900F9009C087E893E101
S11324100197F1F700C0000085EF0E94AB110F9007
S11324200F90DF91CF91089580919205882391F1C7
S1132430809199058823F9F081E080938E0580933B
S11324409705109299058093920580E1E8E9F7E0F9
S1132450A0E7B7E001900D928A95E1F784E6E7E9F9
S1132460F7E0DF011D928A95E9F710928D058091BE
S11324709205882379F080919B05882359F0109266
S11324809B0581E0809399058093920510920E0735
S113249080938D050895809193058823B1F18091EF
S11324A09805882391F18091950190919601039765
S11324B051F481E080938E05109293051092980553
S11324C010928D050895809195019091960102973F
S11324D069F483E090E0909396018093950181E004
S11324E080938D0580919805882379F080919501DA
S11324F090919601019749F482E090E090939601BF
S11325008093950181E080938D05089580919405D1
S1132510882309F492C080919505882301F181E014
S113252080938E051092960510929505109294054D
S113253080E1E8E9F7E0A6E8B7E001900D928A951A
S1132540E1F784E6E7E9F7E0DF011D928A95E9F710
S113255010928D0580919405882309F46EC08091B2
S11325609605882309F45DC01092960581E0809356
S1132570950590E1E8E9F7E0ABEFB7E001900D9243
S11325809A95E1F794E6E7E9F7E0DF011D929A9561
S1132590E9F780938D0545C010928E051092990538
S11325A081E08093960590E1E8E9F7E0A0E7B7E0E1
S11325B001900D929A95E1F794E6E7E9F7E0DF01DF
S11325C01D929A95E9F780938D052FC010928E0580
S11325D010929A0521E02093990580919807909193
S11325E09907A0919A07B0919B07809381079093D4
S11325F08207A0938307B093840784E6E7E9F7E0B2
S1132600DF011D928A95E9F720938D0512C010927F
S11326109B0581E080939A0510920E0780938D05A7
S11326200895809199058111B7CF80919A05811100
S1132630CDCF80919B058111EACF089584E6ECE02B
S1132640F7E0DF011D928A95E9F710929105109247
S113265090058EE090E090939801809397011092FA
S11326609D0510929C0510928F05809194058823F6
S113267019F00E948612089580919305882319F019
S11326800E944B12089580919205882319F00E94AC
S11326901412089580919705882341F081E0809376
S11326A08E051092970510928D05089510928D0550
S11326B0089580EB87BB83E58DB908958FB9779B27
S11326C0FECF08951FBC93E09EBD22EE34E03BBDD7
S11326D02ABD1FBC813021F489B7806189BF03C042
S11326E089B78F7E89BF613041F489B7886089BF1B
S11326F087E298E399BD88BD089589B7877F89BF2C
S113270008951F920F920FB60F9211248F939F93E7
S11327108091A1059091A20501969093A2058093C2
S1132720A1058091A3058F5F8093A3059F918F914D
S11327300F900FBE0F901F9018951F920F920FB617
S11327400F9211248F938091A0058F5F8093A00531
S11327508F910F900FBE0F901F9018955D9BFECF29
S11327608CB90895CF93DF93EC018881882331F0ED
S113277021960E94AE1389918111FBCFDF91CF91F5
S1132780089590BD89B98AB188698AB980B5866887
S113279080BD82E08BB908955058BB27AA270ED07C
S11327A0B1C1A2D130F0A7D120F031F49F3F11F490
S11327B01EF497C10EF4E095E7FB64C1E92FB3D191
S11327C080F3BA17620773078407950718F071F44A
S11327D09EF5E2C10EF4E0950B2EBA2FA02D0B014D
S11327E0B90190010C01CA01A0011124FF27591B52
S11327F099F0593F50F4503E68F11A16F040A22F58
S1132800232F342F4427585FF3CF469537952795C8
S1132810A795F0405395C9F77EF41F16BA0B620BC7
S1132820730B840BBAF09150A1F0FF0FBB1F661F0E
S1132830771F881FC2F70EC0BA0F621F731F841F51
S113284048F4879577956795B795F7959E3F08F077
S1132850B3CF9395880F08F09927EE0F9795879536
S11328600895ECD008F481E008950CD04BC143D115
S113287040F03AD130F021F45F3F19F003C1511117
S11328808CC12FC150D198F39923C9F35523B1F3C7
S1132890951B550BBB27AA2762177307840738F0CB
S11328A09F5F5F4F220F331F441FAA1FA9F333D02A
S11328B00E2E3AF0E0E830D091505040E695001CDE
S11328C0CAF729D0FE2F27D0660F771F881FBB1F9A
S11328D0261737074807AB07B0E809F0BB0B802D74
S11328E0BF01FF2793585F4F2AF09E3F510568F0C0
S11328F0C9C053C15F3FECF3983EDCF386957795EE
S11329006795B795F7959F5FC9F7880F911D9695C1
S1132910879597F90895E1E0660F771F881FBB1F1D
S1132920621773078407BA0720F0621B730B840BCA
S1132930BA0BEE1F88F7E095089504D06894B1119E
S11329402CC10895F8D088F09F5790F0B92F99279B
S1132950B751A0F0D1F0660F771F881F991F1AF0A6
S1132960BA95C9F712C0B13081F016D1B1E008951B
S113297013C1672F782F8827B85F39F0B93FCCF39C
S1132980869577956795B395D9F73EF4909580959C
S1132990709561957F4F8F4F9F4F0895E89409C0BC
S11329A097FB3EF490958095709561957F4F8F4F7E
S11329B09F4F9923A9F0F92F96E9BB279395F69594
S11329C0879577956795B795F111F8CFFAF4BB0F12
S11329D011F460FF1BC06F5F7F4F8F4F9F4F16C076
S11329E0882311F096E911C0772321F09EE8872F00
S11329F0762F05C0662371F096E8862F70E060E0BC
S1132A002AF09A95660F771F881FDAF7880F969534
S1132A10879597F90895A9D080F09F3740F49111D4
S1132A200EF0BBC060E070E080E89FEB089526F4F0
S1132A301B16611D711D811D2BC045C0990F000817
S1132A40550FAA0BE0E8FEEF16161706E807F9077C
S1132A50C0F012161306E407F50798F0621B730B17
S1132A60840B950B39F40A2661F0232B242B252B98
S1132A7021F408950A2609F4A140A6958FEF811D3B
S1132A80811D089597F99F6780E870E060E00895DC
S1132A90882371F4772321F09850872B762F07C071
S1132AA0662311F499270DC09051862B70E060E0E5
S1132AB02AF09A95660F771F881FDAF7880F969584
S1132AC0879597F908959F3F31F0915020F48795A9
S1132AD077956795B795880F911D9695879597F982
S1132AE008959FEF80EC089500240A9416161706A3
S1132AF018060906089500240A94121613061406EB
S1132B0005060895092E0394000C11F4882352F04D
S1132B10BB0F40F4BF2B11F460FF04C06F5F7F4F05
S1132B208F4F9F4F089557FD9058440F551F59F0EC
S1132B305F3F71F04795880F97FB991F61F09F3FA6
S1132B4079F087950895121613061406551FF2CFCF
S1132B504695F1DF08C0161617061806991FF1CF1F
S1132B6086957105610508940895E5DFA0F0BEE738
S1132B70B91788F4BB279F3860F41616B11D672F68
S1132B80782F8827985FF7CF869577956795B11D3D
S1132B9093959639C8F30895E894BB276627772759
S1132BA0CB0197F908950BD0ADCF9EDF28F0A3DFBA
S1132BB018F0952309F066CF94CF1124EECFB3DF3C
S1132BC0A0F3959FD1F3950F50E0551F629FF0013C
S1132BD0729FBB27F00DB11D639FAA27F00DB11D95
S1132BE0AA1F649F6627B00DA11D661F829F22271E
S1132BF0B00DA11D621F739FB00DA11D621F839FA5
S1132C00A00D611D221F749F3327A00D611D231F7A
S1132C10849F600D211D822F762F6A2F11249F57C8
S1132C2050408AF0E1F088234AF0EE0FFF1FBB1FEB
S1132C30661F771F881F91505040A9F79E3F51058A
S1132C4070F020CFAACF5F3FECF3983EDCF386957B
S1132C5077956795B795F795E7959F5FC1F7FE2B35
S1132C60880F911D9695879597F90895A2E1B0E094
S1132C70ECE3F6E10C94B8197C011B016A01FC0138
S1132C8017821682838181FD03C06BC3650105C071
S1132C9088248394912C8C0E9D1EF7019381F1015D
S1132CA093FD859193FF81911F01882309F455C3F6
S1132CB0853239F493FD859193FF81911F0185320B
S1132CC031F4B70190E00E945D1B5601DFCF712CF7
S1132CD0612C20E02032A8F48B3261F028F4803299
S1132CE051F0833271F40BC08D3239F0803349F4E2
S1132CF0216028C02260246025C0286023C0206190
S1132D0021C027FD27C0382F30533A3078F426FFEE
S1132D1006C0FAE07F9E300D1124732E13C04AE0E2
S1132D20649E300D1124632E20620CC08E3221F477
S1132D3026FD13C3206406C08C3611F4206802C03B
S1132D40883641F4F10193FD859193FF81911F0130
S1132D508111C0CF982F9554933018F42061805E70
S1132D6006C0982F9556933008F0A4C12F7E26FDF7
S1132D7002C016E0712EBFE35B2E5222853619F491
S1132D80F0E45F2A07C0863619F440E8542A02C0EA
S1132D9071107A9457FE07C05BE3571548F0472C2F
S1132DA0439427E00DC087E0871530F0272D07C036
S1132DB027E0ACE34A2E04C027E0F7E07F2E412C45
S1132DC0560194E0A90EB11CF601608171818281E3
S1132DD09381042DA4010E94111A8C0149814C870E
S1132DE040FF02C043FF07C051FC08C052FE09C0A7
S1132DF0E0E2DE2E07C07DE2D72E04C06BE2D62EC1
S1132E0001C0D12C8C858C70A1F1DD2011F084E0FF
S1132E1001C083E0861510F0612C0BC0681A53FCC6
S1132E2008C0B70180E290E00E945D1B6A94C9F774
S1132E30F3CFDD2029F0B7018D2D90E00E945D1BBA
S1132E405C8553FD03C008E510E00CC004E510E008
S1132E5009C051108052B70190E00E945D1B0F5FC2
S1132E601F4F02C080E15822F80184918111F1CFF3
S1132E7071C257FE0EC0400E4C8544FF04C08A81C7
S1132E80813309F44A9414144CF558E0541548F16C
S1132E902CC056FC2AC0872D90E08017910744F07F
S1132EA00C3F8FEF180724F090E8592A01C07A9458
S1132EB0772049F0E2E0F0E0EC0FFD1FE70DF11D93
S1132EC080818033A1F357FE10C0472C4394872D93
S1132ED090E00817190744F4701A07C04424439477
S1132EE004C058E0452E01C0712C57FE07C01016CF
S1132EF011063CF498012F5F3F4F05C025E030E0F8
S1132F0002C021E030E0DD2011F02F5F3F4F772039
S1132F1031F0472D50E04F5F5F4F240F351F462D92
S1132F2050E02417350714F4621A01C0612C852D72
S1132F30897049F406C0B70180E290E00E945D1BED
S1132F406A946110F8CFDD2029F0B7018D2D90E04F
S1132F500E945D1B53FC09C006C0B70180E390E0EA
S1132F600E945D1B6A946110F8CF57FE56C0680139
S1132F7017FF02C0C12CD12C20E030E0A801441975
S1132F8051095E874D8728014C185D08480C591C6F
S1132F90872D90E044275527481B590B588B4F87A2
S1132FA05FEFC516D50649F4B7018EE290E02A8B8F
S1132FB0398B0E945D1B39892A890C151D0554F033
S1132FC04D855E854C155D052CF4F201E20FF31F6F
S1132FD0818101C080E351E0C51AD1082F5F3F4FC2
S1132FE04F855889C416D5064CF0B70190E02A8B5A
S1132FF0398B0E945D1B2A893989D2CFC016D1062C
S113300049F49A81963328F4953321F45C8554FD70
S113301001C081E3B70190E04AC08A81813319F08D
S11330204C854F7E4C87B70190E00E945D1B711068
S113303005C054FE16C085E490E015C0B7018EE2C9
S113304090E00E945D1B42E0D42EF401ED0DF11DD1
S1133050D394B701808190E00E945D1B7A94A9F714
S1133060E8CF85E690E0B7010E945D1B17FD06C01E
S11330700115110541F45C8554FF05C011950195B6
S113308011098DE201C08BE2B70190E00E945D1B43
S113309080E303C08F5F0A5011090A301105D4F789
S11330A0B70190E00E945D1BB701C801C0960E9461
S11330B05D1B50C1833631F0833781F0833509F0CD
S11330C05EC024C0560182E0A80EB11CF6018081C6
S11330D08983CC24C394D12C840114C05601F2E01A
S11330E0AF0EB11CF6010081118126FF03C0672DCC
S11330F070E002C06FEF7FEFC8012A8B0E94041BAF
S11331006C012A899FE7592E522217C05601F2E01A
S1133110AF0EB11CF6010081118126FF03C0672D9B
S113312070E002C06FEF7FEFC8012A8B0E94E91A9A
S11331306C012A8980E8582E522A53FC1CC006C010
S1133140B70180E290E00E945D1B6A94862D90E0B6
S1133150C816D906A8F30FC0F80157FC859157FE8D
S113316081918F01B70190E00E945D1B61106A9408
S1133170F1E0CF1AD108C114D10471F7EBC0843641
S113318011F0893651F5560127FF09C044E0A40E19
S1133190B11CF60160817181828193810AC0F2E0E1
S11331A0AF0EB11CF60160817181882777FD80958F
S11331B0982F122F1F7697FF08C0909580957095D1
S11331C061957F4F8F4F9F4F10682AE030E0A40134
S11331D00E94DB1BD82ED81840C0122F853721F44B
S11331E01F7E2AE030E01FC0197F8F36A1F020F443
S11331F0883509F0B2C00BC0803721F0883709F058
S1133200ACC001C0106114FF09C0146007C024FFE2
S113321008C0166006C028E030E005C020E130E0B8
S113322002C020E132E0560117FF09C0F4E0AF0EFE
S1133230B11CF601608171818281938108C0F2E042
S1133240AF0EB11CF6016081718180E090E0A401B1
S11332500E94DB1BD82ED8181F7716FF0BC0212F16
S11332602E7FD71450F414FF0AC012FD08C0212F7A
S11332702E7E05C00D2D212F03C00D2D01C0072D5D
S113328024FF0CC0FE01ED0DF11D8081803311F48B
S1133290297E08C022FF05C00E5F04C0822F8678F5
S11332A009F00F5F23FD14C020FF0FC07D2C06150D
S11332B060F4760C701A062D08C0B70180E290E025
S11332C02A8B0E945D1B0F5F2A890615B0F304C088
S11332D0061510F4601A01C0612C24FF12C0B70156
S11332E080E390E02A8B0E945D1B2A8922FF1EC086
S11332F021FF03C088E590E002C088E790E0B701B1
S11333000CC0822F867891F021FD02C080E201C0BA
S11333108BE227FD8DE2B70190E00E945D1B06C0A1
S1133320B70180E390E00E945D1B7A94D714C0F348
S1133330DA94F401ED0DF11DB701808190E00E9453
S11333405D1BD110F5CF06C0B70180E290E00E946A
S11333505D1B6A946110F8CF99CCF70126813781FF
S113336002C02FEF3FEFC9016296E2E10C94D41939
S11333702F923F924F925F926F927F928F929F9281
S1133380AF92BF92CF92DF92EF92FF920F931F936F
S1133390CF93DF93CDB7DEB7CA1BDB0B0FB6F89420
S11333A0DEBF0FBECDBF09942A88398848885F8460
S11333B06E847D848C849B84AA84B984C884DF80D1
S11333C0EE80FD800C811B81AA81B981CE0FD11DB5
S11333D00FB6F894DEBF0FBECDBFED01089566278A
S11333E077270C94391CFC0188279927E8942191AC
S11333F02032E9F3293010F02E30C8F32B3241F09B
S11334002D3239F4689404C00E94301B820F911D40
S1133410219120532A30C0F31EF4909581959F4F3B
S11334200895283008F027E03327DA01990F311D79
S113343087FD916000966105710539F432602E5F55
S11334403D9330E32A95E1F708959F3F30F08038AB
S11334507105610509F03C5F3C5F3D93913008F0D4
S11334608068911DDF93CF931F930F93FF92EF9288
S1133470192F987F9695E92F96959695E90FFF2732
S1133480EA54FF4F99273327EE24FF24A701E701CD
S113349005900894079428F4360FE71EF81E491F78
S11334A0511D660F771F881F991F0694A1F7059079
S11334B0079428F4E70EF81E491F561FC11D770F05
S11334C0881F991F661F0694A1F70590079428F496
S11334D0F80E491F561FC71FD11D880F991F661F5D
S11334E0771F0694A1F70590079420F4490F561FFF
S11334F0C71FD81F990F661F771F881F0694A9F747
S113350084911095177041F0D695C79557954795B6
S1133510F794E7941A95C1F7ECE5F0E068941590F8
S1133520159135916591959105907FE27395E11818
S1133530F10A430B560BC90BD009C0F7E10CF11E7D
S1133540431F561FC91FD01D7EF4703311F48A9592
S1133550E6CFE894015030F0080F0AF40027021770
S113356008F4202F2395022F7A3328F079E37D93F2
S11335702A95E9F710C07D932A9589F606949795C4
S11335806795379517951794E118F10A430B560B75
S1133590C90BD00998F023957E9173957A3308F07E
S11335A070E37C932013B8F77E9170617D9330F0C3
S11335B0839571E37D9370E32A95E1F71124EF90ED
S11335C0FF900F911F91CF91DF91992787FD9095DF
S11335D00895FC010590615070400110D8F7809562
S11335E090958E0F9F1F0895FB01DC0102C001908E
S11335F00D9241505040D8F70895DC0101C06D93FD
S113360041505040E0F70895FC0161507040019032
S11336100110D8F7809590958E0F9F1F0895FB0198
S11336209F01E8944230C4F04532B4F44A3029F49E
S113363097FB1EF4909581959F4F642F77270E94E6
S1133640B91D805D8A330CF0895D8193CB010097AD
S1133650A1F716F45DE251931082C9010C94A61DE2
S11336607AE0979F902D879F802D910D11240895C6
S1133670FA01CF93FF93EF932230CCF02532BCF4C0
S1133680C22F2C2F332744275527FF93EF930E94F3
S1133690CD1DEF91FF91605D6A330CF0695D61931C
S11336A0B901CA01605070408040904051F71082C7
S11336B08F919F91CF910C94A61D0F931F93CF933D
S11336C0DF938C01EB018B8181FD03C00FEF1FEFB2
S11336D01AC082FF0DC02E813F818C819D812817E5
S11336E0390764F4E881F9810193F983E88306C01A
S11336F0E885F985802F0995892B41F78E819F8173
S113370001969F838E83C801DF91CF911F910F9102
S11337100895AEE0B0E0EFE8FBE10C94C6190D8922
S11337201E898F89988D26E02C831A83098397FF3D
S113373002C080E090E801979E838D83CE014B9672
S1133740AC01698D7A8DCE0101960E9436164D81A9
S11337505E8157FD0AC02F813885421753070CF448
S11337609A01F801E20FF31F10822E96E4E00C9404
S1133770E219AEE0B0E0EFEBFBE10C94C6190D8961
S11337801E8986E08C831A8309838FEF9FE79E83CB
S11337908D83CE014996AC016F89788DCE01019657
S11337A00E943616EF81F885E00FF11F10822E96E5
S11337B0E4E00C94E219FA01AA27283051F12031EF
S11337C081F1E8946F936E7F6E5F7F4F8F4F9F4FB1
S11337D0AF4FB1E03ED0B4E03CD0670F781F891FF3
S11337E09A1FA11D680F791F8A1F911DA11D6A0FC1
S11337F0711D811D911DA11D20D009F468943F9174
S11338002AE0269F11243019305D3193DEF6CF0172
S11338100895462F4770405D4193B3E00FD0C9F738
S1133820F6CF462F4F70405D4A3318F0495D31FDA5
S11338304052419302D0A9F7EACFB4E0A6959795F8
S1133840879577956795BA95C9F7009761057105CE
S113385008959B01AC010A2E069457954795379518
S11338602795BA95C9F7620F731F841F951FA01D72
S11338700895A0E0B0E0EFE3FCE10C94BE197B01F5
S11338806115710521F0DB018C9311969C93EC0179
S1133890C9908E018C2D90E00E94861D892BC1F762
S11338A0BDE2CB1206C0FE01C1908F01DD24D3948A
S11338B007C0FBE2CF1203C0DE01CD908D01D12CF5
S11338C0E801219743E050E066E571E0CE010E94F3
S11338D08E1D892BC9F4E801229645E050E069E584
S11338E071E0CE010E948E1D892B11F4E801279608
S11338F0E114F10419F0F701D183C083812C912CD8
S113390090E8D110F3C0F7C043E050E06EE571E0F9
S1133910CE010E948E1D892B51F4E114F10409F4A7
S1133920E7C00E5F1F4FD7010D931C93E1C060E009
S113393070E0CB01C0E0D0E0EC2DE053EA3020F59C
S1133940FD2DF2602D2D2870D2FE04C0211122C05D
S1133950219620C021112197A5E0B0E09B01AC0184
S11339600E94EF1D660F771F881F991F6E0F711D30
S1133970811D911D6839B9E97B078B07B9E19B0764
S113398048F0FD2DF66006C0EE3F49F4D3FC43C079
S1133990FD2DF860D801CD908D01DF2ECDCFE5331C
S11339A011F0E531C1F5F801A081AD3219F4F0E16F
S11339B0DF2A07C0AB3229F00F5F1F4F21E030E050
S11339C006C0F801A1810E5F1F4F22E030E0A05332
S11339D0AA3018F0021B130B1EC0F80120E030E0DF
S11339E020384CE034075CF4A901440F551F440F00
S11339F0551F240F351F220F331F2A0F311DA1918C
S1133A00A0538F01AA3060F3D4FE03C031952195F1
S1133A103109C20FD31FD1FE08C0E114F10429F00B
S1133A2001501109D7010D931C930E94CE142D2D22
S1133A302370233019F04B015C0105C0DC01CB017C
S1133A40B0584C015D0120E030E0A901682D792DCA
S1133A508A2D9B2D0E943114882309F444C0D7FF7A
S1133A6006C0D195C195D1090DE811E002C005E762
S1133A7011E06801B8E1CB1AD10890E2E92EF12CEB
S1133A8013C0F80185919591A591B491282F392FF0
S1133A904A2F5B2F682D792D8A2D9B2D0E94D315DB
S1133AA04B015C01CE19DF09CE15DF0554F7045034
S1133AB01109F594E7940C151D05B1F7B401C5017E
S1133AC0282F220F292F221F2F3F39F020E030E02A
S1133AD0A9010E943114811106C082E290E0909302
S1133AE00D0880930C089A2D8B2D06C08FEF04C00F
S1133AF0812C912C90EC8FE79C01682D792D832FDC
S1133B00922FCDB7DEB7ECE00C94DA1991112EC0E8
S1133B10803219F089508550D0F70895FB01DC01FB
S1133B204150504088F08D9181341CF08B350CF459
S1133B30805E659161341CF06B350CF4605E861B0D
S1133B40611171F3990B0895881BFCCFDC01FC0112
S1133B50672F71917723E1F7329704C07C916D93BD
S1133B6070836291AE17BF07C8F308959927882719
S1133B700895AA1BBB1B51E107C0AA1FBB1FA617B0
S1133B80B70710F0A61BB70B881F991F5A95A9F702
S1133B9080959095BC01CD010895A1E21A2EAA1B2F
S1133BA0BB1BFD010DC0AA1FBB1FEE1FFF1FA217E9
S1133BB0B307E407F50720F0A21BB30BE40BF50BE6
S1133BC0661F771F881F991F1A9469F7609570956F
S1133BD0809590959B01AC01BD01CF0108950E9491
S1133BE0FA1DA59F900DB49F900DA49F800D911D6B
S1133BF011240895A29FB001B39FC001A39F01D0D7
S1133C00B29F700D811D1124911D0895F894FFCF6A
S1133C10FF0100920400F00505520703910500928C
S1133C20040092040092040092040092040192049D
S1133C3001F005019204019204019204019204012D
S1133C409204019204019204029204045A0502921D
S1133C500402920402920402920402920402920464
S1133C60029204039204045A050392040392040387
S1133C7092040392040392040392040392040492B0
S1133C800404D804039105041A0605080604D8049C
S1133C90059304039105041A0605920406510605CA
S1133CA01A0602BA0405080600F00505520705E9DC
S1133CB00605920406920406710606910506090794
S1133CC00692040692040692040693040692040FD4
S1133CD000013132334634353645373839444130C2
S1133CE042430404840A00790B007A0C019D0E02FD
S1133CF0870D03C00C019204007A0C019204019216
S1133D0004019204019204029204007A0C029204C7
S1133D10029204029204029204039204007A0C03B5
S1133D20920403920403920403920404920404BCD4
S1133D300F00EA0F049204049204049204010103A4
S1133D40000100010001000E000001100102100337
S1133D500110000110000110020110030110000104
S1133D6010000110020110030110000110000110E5
S1133D7002011003BD11040110000110050110031C
S1133D800110041E130001100102100501100501A9
S1133D9010456E657267793A20202020202020206B
S1133DA020206D577300506F7765723A20202020D1
S1133DB0202020202020206D57004368617267690D
S1133DC06E672070726F67726573733A00252E33C5
S1133DD066200D0A006E6F7420636F6E76657274D0
S1133DE0656400252E3166200D0A006E6F74206311
S1133DF06F6E76657274656420636F727265637446
S1133E00004368617267696E6720697320636F6D30
S1133E10706C65746500756964005761697400505D
S1133E20494E206973204F4B00496E636F7272656F
S1133E3063742050494E0041636365737320697352
S1133E4020626C6F636B65640057726F6E672050FD
S1133E50494E20696E70757420337800556E6B6E10
S1133E606F776E206361726400313000303100304E
S1133E70320050494E206973206265696E67206381
S1133E806865636B656400303000456E746572204C
S1133E9050494E3A00556C747261203230303020F3
S1133EA0654368617267650055736520796F757243
S1133EB02052464944206361726400456E646F6613
S1133EC053657373696F6E003939005265706561AB
S1133ED0744C6173745061636B65740030390053C2
S1133EE0797374656D2773206F66666C696E6500FF
S1133EF036342E373600252E3266200D0A00556CD6
S1133F0074726120323030302065436861726765B5
S1133F107200507265737320616E79206B6579004D
S1133F20537461727453657373696F6E0032320037
S1133F30436F6E6E6563746564004E6F20636F6ECD
S1133F406E656374696F6E004F66666C696E652C8E
S1133F5020666978656420707269636500646B6BC0
S1133F602F6B5773004163636570742020202020F9
S1133F7020202000476F6F642042796500596F75D7
S1133F80277665206265656E206465626974656480
S1133F9000506C6561736520757365205246494411
S1133FA0206361726400746F20726563616C637571
S1133FB06C617465007772697465004C6F6767653E
S1133FC064206F75740053656E6443757272656E18
S1133FD074507269636500353000507269636520FE
S1133FE000436F6E73756D7074696F6E0044656223
S1133FF06974004163636F756E74206465626974EB
S11340000020446B6B0053656E6442616C616E63A7
S113401065003636004163636F756E742062616CAF
S1134020616E636500204261636B0053656E644C8E
S1134030617374436F6E73756D6564456E65726705
S1134040790036310053656E644C617374546F7437
S1134050616C00363300546865206C6173742063AE
S11340606F6E73756D7074696F6E00456E657267FF
S1134070793A202000206B577300436861726765AA
S1134080643A200020646B6B00252E3266003836BB
S1134090003837004368617267696E67277320636D
S11340A06F6D706C657465002041636365707400A6
S10940B025303258000027
S9030000FC
